{
  "_format": "hh-sol-artifact-1",
  "contractName": "invoice",
  "sourceName": "contracts/invoice.sol",
  "abi": [
    {
      "inputs": [],
      "stateMutability": "nonpayable",
      "type": "constructor"
    },
    {
      "inputs": [
        {
          "internalType": "uint256",
          "name": "_id",
          "type": "uint256"
        },
        {
          "internalType": "string",
          "name": "_buyerPan",
          "type": "string"
        },
        {
          "internalType": "string",
          "name": "_sellerPan",
          "type": "string"
        },
        {
          "internalType": "address payable",
          "name": "_seller",
          "type": "address"
        },
        {
          "internalType": "string",
          "name": "_data",
          "type": "string"
        }
      ],
      "name": "Tranct",
      "outputs": [],
      "stateMutability": "payable",
      "type": "function"
    },
    {
      "inputs": [],
      "name": "getInvoice",
      "outputs": [
        {
          "components": [
            {
              "internalType": "uint256",
              "name": "id",
              "type": "uint256"
            },
            {
              "internalType": "string",
              "name": "buyerPan",
              "type": "string"
            },
            {
              "internalType": "string",
              "name": "sellerPan",
              "type": "string"
            },
            {
              "internalType": "address payable",
              "name": "seller",
              "type": "address"
            },
            {
              "internalType": "string",
              "name": "data",
              "type": "string"
            },
            {
              "internalType": "uint256",
              "name": "amount",
              "type": "uint256"
            }
          ],
          "internalType": "struct invoice.Invoice[]",
          "name": "",
          "type": "tuple[]"
        }
      ],
      "stateMutability": "view",
      "type": "function"
    },
    {
      "inputs": [],
      "name": "manager",
      "outputs": [
        {
          "internalType": "address",
          "name": "",
          "type": "address"
        }
      ],
      "stateMutability": "view",
      "type": "function"
    }
  ],
  "bytecode": "0x608060405234801561001057600080fd5b50336000806101000a81548173ffffffffffffffffffffffffffffffffffffffff021916908373ffffffffffffffffffffffffffffffffffffffff160217905550610cce806100606000396000f3fe6080604052600436106100345760003560e01c8063240d9b9714610039578063481c6a7514610055578063e2f8b61914610080575b600080fd5b610053600480360381019061004e9190610697565b6100ab565b005b34801561006157600080fd5b5061006a610206565b6040516100779190610787565b60405180910390f35b34801561008c57600080fd5b5061009561022a565b6040516100a29190610998565b60405180910390f35b60016040518060c001604052808781526020018681526020018581526020018473ffffffffffffffffffffffffffffffffffffffff1681526020018381526020013481525090806001815401808255809150506001900390600052602060002090600602016000909190919091506000820151816000015560208201518160010190816101389190610bc6565b50604082015181600201908161014e9190610bc6565b5060608201518160030160006101000a81548173ffffffffffffffffffffffffffffffffffffffff021916908373ffffffffffffffffffffffffffffffffffffffff16021790555060808201518160040190816101ab9190610bc6565b5060a0820151816005015550508173ffffffffffffffffffffffffffffffffffffffff166108fc349081150290604051600060405180830381858888f193505050501580156101fe573d6000803e3d6000fd5b505050505050565b60008054906101000a900473ffffffffffffffffffffffffffffffffffffffff1681565b60606001805480602002602001604051908101604052809291908181526020016000905b828210156104a057838290600052602060002090600602016040518060c00160405290816000820154815260200160018201805461028b906109e9565b80601f01602080910402602001604051908101604052809291908181526020018280546102b7906109e9565b80156103045780601f106102d957610100808354040283529160200191610304565b820191906000526020600020905b8154815290600101906020018083116102e757829003601f168201915b5050505050815260200160028201805461031d906109e9565b80601f0160208091040260200160405190810160405280929190818152602001828054610349906109e9565b80156103965780601f1061036b57610100808354040283529160200191610396565b820191906000526020600020905b81548152906001019060200180831161037957829003601f168201915b505050505081526020016003820160009054906101000a900473ffffffffffffffffffffffffffffffffffffffff1673ffffffffffffffffffffffffffffffffffffffff1673ffffffffffffffffffffffffffffffffffffffff168152602001600482018054610405906109e9565b80601f0160208091040260200160405190810160405280929190818152602001828054610431906109e9565b801561047e5780601f106104535761010080835404028352916020019161047e565b820191906000526020600020905b81548152906001019060200180831161046157829003601f168201915b505050505081526020016005820154815250508152602001906001019061024e565b50505050905090565b6000604051905090565b600080fd5b600080fd5b6000819050919050565b6104d0816104bd565b81146104db57600080fd5b50565b6000813590506104ed816104c7565b92915050565b600080fd5b600080fd5b6000601f19601f8301169050919050565b7f4e487b7100000000000000000000000000000000000000000000000000000000600052604160045260246000fd5b610546826104fd565b810181811067ffffffffffffffff821117156105655761056461050e565b5b80604052505050565b60006105786104a9565b9050610584828261053d565b919050565b600067ffffffffffffffff8211156105a4576105a361050e565b5b6105ad826104fd565b9050602081019050919050565b82818337600083830152505050565b60006105dc6105d784610589565b61056e565b9050828152602081018484840111156105f8576105f76104f8565b5b6106038482856105ba565b509392505050565b600082601f8301126106205761061f6104f3565b5b81356106308482602086016105c9565b91505092915050565b600073ffffffffffffffffffffffffffffffffffffffff82169050919050565b600061066482610639565b9050919050565b61067481610659565b811461067f57600080fd5b50565b6000813590506106918161066b565b92915050565b600080600080600060a086880312156106b3576106b26104b3565b5b60006106c1888289016104de565b955050602086013567ffffffffffffffff8111156106e2576106e16104b8565b5b6106ee8882890161060b565b945050604086013567ffffffffffffffff81111561070f5761070e6104b8565b5b61071b8882890161060b565b935050606061072c88828901610682565b925050608086013567ffffffffffffffff81111561074d5761074c6104b8565b5b6107598882890161060b565b9150509295509295909350565b600061077182610639565b9050919050565b61078181610766565b82525050565b600060208201905061079c6000830184610778565b92915050565b600081519050919050565b600082825260208201905092915050565b6000819050602082019050919050565b6107d7816104bd565b82525050565b600081519050919050565b600082825260208201905092915050565b60005b838110156108175780820151818401526020810190506107fc565b60008484015250505050565b600061082e826107dd565b61083881856107e8565b93506108488185602086016107f9565b610851816104fd565b840191505092915050565b61086581610659565b82525050565b600060c08301600083015161088360008601826107ce565b506020830151848203602086015261089b8282610823565b915050604083015184820360408601526108b58282610823565b91505060608301516108ca606086018261085c565b50608083015184820360808601526108e28282610823565b91505060a08301516108f760a08601826107ce565b508091505092915050565b600061090e838361086b565b905092915050565b6000602082019050919050565b600061092e826107a2565b61093881856107ad565b93508360208202850161094a856107be565b8060005b8581101561098657848403895281516109678582610902565b945061097283610916565b925060208a0199505060018101905061094e565b50829750879550505050505092915050565b600060208201905081810360008301526109b28184610923565b905092915050565b7f4e487b7100000000000000000000000000000000000000000000000000000000600052602260045260246000fd5b60006002820490506001821680610a0157607f821691505b602082108103610a1457610a136109ba565b5b50919050565b60008190508160005260206000209050919050565b60006020601f8301049050919050565b600082821b905092915050565b600060088302610a7c7fffffffffffffffffffffffffffffffffffffffffffffffffffffffffffffffff82610a3f565b610a868683610a3f565b95508019841693508086168417925050509392505050565b6000819050919050565b6000610ac3610abe610ab9846104bd565b610a9e565b6104bd565b9050919050565b6000819050919050565b610add83610aa8565b610af1610ae982610aca565b848454610a4c565b825550505050565b600090565b610b06610af9565b610b11818484610ad4565b505050565b5b81811015610b3557610b2a600082610afe565b600181019050610b17565b5050565b601f821115610b7a57610b4b81610a1a565b610b5484610a2f565b81016020851015610b63578190505b610b77610b6f85610a2f565b830182610b16565b50505b505050565b600082821c905092915050565b6000610b9d60001984600802610b7f565b1980831691505092915050565b6000610bb68383610b8c565b9150826002028217905092915050565b610bcf826107dd565b67ffffffffffffffff811115610be857610be761050e565b5b610bf282546109e9565b610bfd828285610b39565b600060209050601f831160018114610c305760008415610c1e578287015190505b610c288582610baa565b865550610c90565b601f198416610c3e86610a1a565b60005b82811015610c6657848901518255600182019150602085019450602081019050610c41565b86831015610c835784890151610c7f601f891682610b8c565b8355505b6001600288020188555050505b50505050505056fea2646970667358221220776bc6268dc3777ed6e5be14f249272c3be5e33849078703032d76fe0a97fdd764736f6c63430008110033",
  "linkReferences": {},
  "deployedLinkReferences": {}
}